:1000000000000420BD020000E5020000E70200003D
:10001000E9020000EB020000ED0200000000000019
:10002000000000000000000000000000EF020000DF
:10003000F102000000000000F3020000F5020000E1
:10004000F7020000F702000051080000F70200006C
:10005000F7020000F7020000F7020000F7020000BC
:10006000F7020000F7020000F7020000F7020000AC
:10007000F7020000F7020000F7020000F70200009C
:10008000F7020000F7020000F7020000F70200008C
:10009000F7020000F7020000F7020000F70200007C
:1000A000F7020000F7020000F7020000F70200006C
:1000B000F7020000F702000000000000000000004E
:1000C000F7020000F7020000F7020000F70200004C
:1000D000F7020000F7020000F7020000F70200003C
:1000E000F7020000F7020000F70200000000000025
:1000F00000000000F702000000000000F70200000E
:1001000000000000000000000000000000000000EF
:1001100000000000000000000000000000000000DF
:1001200000000000000000000000000000000000CF
:1001300000000000000000000000000000000000BF
:1001400000000000000000000000000000000000AF
:10015000000000000000000000000000000000009F
:10016000000000000000000000000000000000008F
:10017000000000000000000000000000000000007F
:10018000000000000000000000000000000000006F
:10019000000000000000000000000000000000005F
:1001A000000000000000000000000000000000004F
:1001B000000000000000000000000000000000003F
:1001C000000000000000000000000000000000002F
:1001D000000000000000000000000000000000001F
:1001E000000000000000000000000000000000000F
:1001F00000000000000000000000000000000000FF
:1002000010B5054C237833B9044B13B10448AFF350
:1002100000800123237010BD880000200000000032
:100220001428000008B5034B1BB103490348AFF382
:10023000008008BD000000008C0000201428000091
:10024000A3F5803A704700BF174B002B08BF134B34
:100250009D46FFF7F5FF00218B460F461348144AD1
:10026000121A01F069FA0E4B002B00D098470D4B83
:10027000002B00D098470020002104000D000D48FD
:10028000002802D00C48AFF3008001F031FA2000C2
:10029000290001F0C5F801F017FA00BF00000800BE
:1002A0000000000000000000000004208800002082
:1002B0006003002000000000000000000649074A1B
:1002C000074B9B1A03DD043BC858D050FBDC01F000
:1002D000EBF8FFF7B9FF0000202800000000002025
:1002E00088000020FEE7FEE7FEE7FEE7FEE7FEE708
:1002F000FEE7FEE7FEE7FEE7C20730B40ED4830751
:100300000AD54FF0A0430C22C3F82C27C3F830279E
:10031000C3F86027C3F8642730BC70474FF0A04390
:100320000322C3F834274FF40055C3F838274FF49D
:100330008044C3F83C274FF40041C3F840274FF4F2
:100340008032C3F80855C3F80845C3F80815C3F848
:100350000825D4E700B585B00346002101AA44F280
:100360000100CDE90111039300F004F805B05DF838
:1003700004FB00BF72B6094B1B68DB0700D500BE4B
:10038000BFF34F8F0649074BCA6802F4E06213437C
:10039000CB60BFF34F8F00BFFDE700BFF0ED00E083
:1003A00000ED00E00400FA0559B142B1531E1A40B5
:1003B00005D1826001608380C260104670470920C9
:1003C00070470E20704700BF10B48468C2680346AF
:1003D0008088121B904203D204205DF8044B7047C2
:1003E000DA681C6802400020A154DA680132DA6041
:1003F0005DF8044B704700BF03468068DA6890429E
:100400000DD010B498689A881C6802400020A25C45
:100410000A709A6801329A605DF8044B70470520B3
:10042000704700BF30B50478012C83B004D0022C93
:100430002DD0ECB103B030BD037A002B3CD0436823
:10044000364D19782846FFF7BFFF002854D0344BAB
:1004500001901B688DF8004068469847A968EB68D2
:10046000AA885B1A9A4227D22E4B01221A70E1E722
:100470002D492E48FFF7C0FF00282ED0284B03221D
:100480001B688DF800206846984703B030BD284BA4
:10049000284D1A78C168AA5C01918DF80040B2B964
:1004A000254903F10C00012200F044FC1C4B684676
:1004B0001B68984703B030BD1D4B1E4A1B781E4970
:1004C000D35C0122A3B11D4800F008FFB2E71A492E
:1004D000181D012200F002FFE8E71548154A0378CD
:1004E000D35CA3B110490122043000F08FFEA1E7D4
:1004F000134800F01FFC9DE7AA68EB689A42ADD054
:10050000074B8DF800001B6868469847A6E7064928
:1005100001220C3000F09AFB8CE700BFA8000020FD
:10052000A4000020B8000020D0000020BC00002063
:100530000000002050030020CC0000200400002018
:100540000C0000202DE9F041334D8AB02A600029CB
:1005500056D08A8880460D46304809681C46FFF709
:1005600023FF10B10AB0BDE8F081AA89A9682C4820
:10057000FFF71AFF0028F5D12A4E98F810C02A4F2D
:100580000FCE02AD0FC596E80F0098F81160BCF1D0
:10059000000C85E80F0018BF4FF0010CD8F80430AC
:1005A0000193002ED8F81430D8F808508DF8244064
:1005B00014BF0E220022D8F80C40D8F800608DF845
:1005C0001D200893194A019B8DF81CC002A93846CA
:1005D000CDE904450396029300F0F6F80028C1D156
:1005E000D8F80030124A01331070BBD0114A3B7862
:1005F000D35C4BB11049381D012200F06FFEB1E70A
:1006000007200AB0BDE8F0810B4907F10C00012278
:1006100000F090FBA6E700BFA4000020A800002087
:10062000BC00002018270000000000202504000066
:10063000B800002050030020CC00002070B5114D00
:10064000014611482E78FFF7D7FE04460EB9204622
:1006500070BD0E480E4A0378D35C00222A7053B155
:100660000C490430012200F039FE0028EFD0FFF7DA
:1006700071FE204670BD074901220C3000F05AFB84
:10068000F3E700BFB8000020A80000200000002011
:1006900050030020CC00002070B501461548FFF73C
:1006A00093FE044608B1204670BD134D134E2B78BF
:1006B000F35CA3B1281D00F003FE0028F3D110491C
:1006C0000C48FFF799FE0028EDD12B780C49F35C1C
:1006D00001224BB1BDE870400A4800F097BD05F11A
:1006E0000C0000F01BFBE8E7BDE87040064800F096
:1006F000ADBA00BFBC000020000000205003002065
:10070000D0000020040000200C00002072B6024A35
:100710001368013313607047D4000020034A136844
:10072000013B136003B962B6704700BFD4000020DC
:1007300070B5161E07DD0C468D1914F8010BFFF776
:10074000ABFFA542F9D1304670BD00BF10B50C46D5
:100750002046FFF773FF0528FAD0012010BD00BF27
:1007600030B585B0047845688DF80040D0E9024086
:10077000064A074B039053F82130019552F8211097
:100780008DF808406846984705B030BDD800002075
:10079000E000002030B585B0047845688DF8004051
:1007A000D0E90240064A074B039053F821300195E7
:1007B00052F821108DF808406846984705B030BDC2
:1007C000D8000020E00000202DE9F047DFF8748019
:1007D00090F800E04B7F08F80E300D4607461646AD
:1007E0000FCD88B06C460FC495E80F003D78DFF858
:1007F0005890DFF858C018F8055049F82E6084E882
:100800000F004CF82E00CDF810E05DB1002E0B4A21
:10081000694607F1040008BF324600F0E3FB08B068
:10082000BDE8F087002E064A694607F10C0008BFB4
:10083000324600F013F908B0BDE8F0876107000008
:100840009507000050030020E0000020D8000020A1
:10085000014B1B68184700BFE800002038B50C4B5F
:10086000984213D100200D46FFF750FF094B1C7929
:1008700024B10020FFF752FF112038BD012220468D
:100880001D601A71FFF74AFF204638BD002038BDB1
:1008900000200040E800002030B56E4AD2F8043352
:1008A00099058BB068D5D2F82431002B64D0002391
:1008B000C2F82431D2F8243101934FF40171664B10
:1008C0000198C2F8081393F8291009B90121516061
:1008D000604902228DF81820D1F88024C1F88024C4
:1008E0009869D968099200240025CDE90710C3E969
:1008F0000645D3E9001206A89047564AD2F81C31A3
:10090000C3B1554B5869196A88426AD993F82810BF
:1009100001F0FF00002964D1C2F81C01D2F81C11BB
:10092000039103999C68186A196A205C0131196265
:10093000C2F81C05474AD2F84431DBB10021464BCE
:10094000C2F84411D2F8440193F82910009000989D
:1009500009B1012111609A6962B1586AD96800220F
:100960009A610122CDE907108DF8182006A8D3E975
:10097000001290470BB030BD364AD2F804335B0703
:10098000BBD5D2F80831002BB7D0334B9969002979
:100990003ED00021C2F80811D2F808110491049940
:1009A000D868596AD2F8182542545A6A99690132AE
:1009B0005A625A6A8A42A0D1DA69002A31D0DD68C7
:1009C0005C6A18699A6101210022D860DA615A6272
:1009D0008DF81810CDE90754D3E9001206A8904706
:1009E0008BE71C4A0021C2F81C11D2F81C2102928C
:1009F000029A5A69002A9DD058699A688DF8181091
:100A000008905961079206A8D3E90012904791E730
:100A1000C2F80811D2F8080105900598D2F81825F7
:100A2000C7E793F8292012B90A4A01215160094AFF
:100A30004FF40171C2F80813596ADA68089100246A
:100A4000012007928DF81800D3E900129C6106A8D6
:100A5000904752E700200040F00000202DE9F041CF
:100A6000DFF8E48106792C2303FB068382B093F838
:100A70002A30002B40F09E8005460C4600686D49E8
:100A80001746FFF7EBFE002840F090802368591CC2
:100A900019D01F2B4FF001028ABF67494FF0A041C8
:100AA00003F01F0302FA03F3C1F8083523681F2B74
:100AB00086BF03F01F03604A4FF0A04203F5E073C6
:100AC000032142F8231063685A1C0BD01F2B86BFEA
:100AD00003F01F03584A4FF0A04203F5E0730021D2
:100AE00042F823102B68A269C3F82425217D637D79
:100AF0002A680B43C2F86C35D4E900122B68C3F89E
:100B00001425C3F80C15237D012B5FD02C2303FB88
:100B100006F308EB03025760226948F803202A68AD
:100B200097B30021237FC2F81C11D2F81C21009238
:100B30002A68009FC2F84411D2F844112A68019132
:100B40003E4C0199C2F804432A6842F30731002958
:100B50004FEA123232DB01F1604101F561415B0184
:100B6000DBB281F800332A6842F30733002B4FEAE7
:100B7000123109DB324C01225B0901F01F0102FA3C
:100B800001F144F823102A682C2303FB0686012474
:100B900000230421C2F80015C6E9063386F82A406E
:100BA00086F82930736102B0BDE8F081112002B0EF
:100BB000BDE8F081082002B0BDE8F081214902F0D3
:100BC0000F025B011144DBB20B76CCE7A368591C22
:100BD0000BD01F2B86BF03F01F0317494FF0A04116
:100BE00003F5E073002241F82320E3685A1C1AD071
:100BF0001F2B8ABF10494FF0A04103F01F030122B1
:100C000002FA03F3C1F80835E3681F2B88BF03F02D
:100C10001F0303F5E0738CBF07494FF0A041032287
:100C200041F82320E3682A68A168C2F80835C2F8B1
:100C300010156BE7990800000003005080000200C7
:100C400000E100E0FCEC00E0F00000202DE9F041C4
:100C5000314E05792C2303FB05630446586984B0A3
:100C600000284CD15A619960186283F828002268E4
:100C7000C2F81C01D2F81C11226802910121029FC6
:100C800091602268D3F808C0C2F81C01D2F81C1188
:100C9000019101991F6A196A1CF8077001311962E4
:100CA000C2F81C755A6812B104B0BDE8F0815F69E2
:100CB0001A6A216897421BD9864602E093F82820D9
:100CC0000ABBD1F81C21002AF8D0C1F81CE1D1F8E8
:100CD0001C210392039AD3F820801A6A1CF808801A
:100CE00001321A62C1F81C851A6A9742E9D8216854
:100CF000D1F81C31002BFBD00123CB6004E0112084
:100D000004B0BDE8F0810F202C2303FB0565002310
:100D10006B6104B0BDE8F081F00000200379044A63
:100D20002C2101FB03235869003818BF01207047AC
:100D3000F0000020F0B4504F06792C2303FB06731B
:100D400086B05D68044625B103684FF40170C3F8AE
:100D500008032C2303FB0673986990B1D869002817
:100D60007CD11961DA612C2303FB06735A683AB30C
:100D700023684FF40172C3F80423002006B0F0BCCE
:100D8000704793F829509A61D9605862D861002D54
:100D9000E9D12368C3F82451D3F8242123680192B0
:100DA000019AC3F80851D3F808212368029201225E
:100DB00002991A602C2303FB06735A68002AD7D1C4
:100DC0002168C1F84421D1F844210392039A226892
:100DD000D2F82411D2F80851D2F8440155B90028AC
:100DE00033D10029F4D02C2303FB06760023B36112
:100DF0000320C3E70029F6D148BB9969C2F808016E
:100E000081B1D2F8081104910499DD68596AD2F8C9
:100E100018256A545A6A996901325A625A6A91428B
:100E2000D5D806E0D2F8081105910599D2F8182511
:100E30005B6A2C2303FB0676002296F82930B26108
:100E4000A3B1236801221A6098E70029CBD12C2393
:100E500003FB06760023B3610F208FE755B12368AB
:100E60004FF40172C3F80423112087E7236801229D
:100E70005A6083E7112081E7F000002030B5574B1E
:100E8000D3F824218BB0002A75D00022C3F8242186
:100E9000D3F82421049202228DF81820049AD3F862
:100EA00080144F4AC3F880140991D3F83C15D368D5
:100EB0000891002400250793C2E90645116853688C
:100EC00006A89847454BD3F8442152B10021444A23
:100ED000C3F84411D3F844019169039003980029A1
:100EE00038D13E4BD3F820215AB10021C3F820114C
:100EF000D3F8202102920120394A029CD86050691F
:100F0000D8B9364BD3F85821AAB10021C3F85811EB
:100F1000D3F85801324A01900198506958B1D3F87A
:100F20004C05936808908DF818105161079306A836
:100F3000D2E9001398470BB030BDD3F84C05936845
:100F400008908DF818105161079306A8D2E9001394
:100F50009847D6E7D3F83C35D1680893002400259C
:100F6000012307918DF81830C2E90645D2E9001334
:100F700006A89847B5E7D3F810110029A2D0C3F806
:100F80001021D3F810111648059105998469D3F8FA
:100F90003C15A14296D1C469A4B1D3F80052846132
:100FA00025F02005C3F80052D0E90343C2610122B5
:100FB0000891C3600168436807948DF8182006A85B
:100FC00098477FE7C26884610123CDE907218DF846
:100FD0001830D0E9001306A8984773E700200040B6
:100FE000200100202DE9F0430779824E07EBC7036B
:100FF00006EB830387B093F82030002B40F0B980D4
:1010000004460D4600687C499046FFF727FC0028FF
:1010100040F0AB802B68591C4FEAC70919D01F2B31
:101020004FF001028ABF75494FF0A04103F01F0342
:1010300002FA03F3C1F808352B681F2B86BF03F0B3
:101040001F036E4A4FF0A04203F5E073032142F8FC
:1010500023106B685A1C0BD01F2B86BF03F01F0395
:10106000664A4FF0A04203F5E073002142F82310D6
:101070002368AA69C3F82425297D6A7D23680A4369
:10108000C3F86C25D5E900312268C2F80C35C2F8E6
:1010900014152B7D012B78D009EB070206EB820398
:1010A000C3F804802B6946F82230B8F1000F4BD00A
:1010B00021682B7F524D0022C1F81021D1F8101168
:1010C00001912168DDF804C0C1F82021D1F8201178
:1010D00002912168DDF808C0C1F82421D1F824115B
:1010E00003912168DDF80CC0C1F84421D1F8441106
:1010F00004912168DDF810C0C1F85821D1F85811C9
:10110000226805910599C2F80453226842F3073119
:1011100000294FEA123230DB01F1604101F56141F3
:101120005B01DBB281F80033226842F30733002B06
:101130004FEA123109DB334D01225B0901F01F0137
:1011400002FA01F145F8231022684F4406EB8706A6
:10115000002301240821C2F80015C6E9063386F8E9
:101160002040736107B0BDE8F083112007B0BDE8EF
:10117000F083082007B0BDE8F083234902F00F0296
:101180005B011144DBB20B76CEE7AB68591C0BD088
:101190001F2B86BF03F01F0318494FF0A04103F532
:1011A000E073002241F82320EB685A1C1AD01F2B51
:1011B0008ABF12494FF0A04103F01F03012202FA37
:1011C00003F3C1F80835EB681F2B88BF03F01F033A
:1011D00003F5E0738CBF09494FF0A041032241F8A9
:1011E0002320EB682268A968C2F80835C2F81015F8
:1011F00052E700BF200100207D0E000000030050D8
:101200001003420000E100E0FCEC00E0F0B401F06B
:101210006044B4F1005F82B02CD10579274E05EB14
:10122000C50406EB840403466069EF0000283ED144
:101230006261A1601A68C2F82001D2F820C11A6860
:10124000CDF804C0DDF804C0C2F85801D2F8582126
:1012500000921A68DDF800C0D4F814C0C2F8441532
:10126000C2F848C51A6801219160626832B102B0C3
:10127000F0BC7047102002B0F0BC70471A6800E064
:10128000C8B9D2F82011D2F858010029F8D090B985
:101290000121D1601B68D3F85821002AFBD07B19AB
:1012A00006EB830300225A6102B0F0BC70471120A4
:1012B00002B0F0BC70470F20F1E700BF2001002012
:1012C0000379054A03EBC30302EB83035869003833
:1012D00018BF0120704700BF2001002001F06043CB
:1012E000B3F1005F5ED1F0B40479474D04EBC4065E
:1012F00005EB860682B07668E30026B107684FF4F6
:10130000047CC7F808C3234405EB83039C694CBBEA
:101310009A61DC61D9600368C3F81041D3F81061A9
:1013200003680196019EC3F84441D3F84441036821
:101330000094009CC3F83415C3F8382503680122D3
:101340001A60047904EBC40305EB8303E6005B68D1
:1013500053B303684FF40472C3F80423002002B0AF
:10136000F0BC7047DC69002C37D11961DA61036881
:10137000C3F81041D3F8106103680196019EC3F8C9
:101380004441D3F8444103680094009CC3F83415E9
:10139000C3F838250268D2F8003243F02003C2F8BF
:1013A0000032CEE710207047036801E0E9B910BBB6
:1013B000D3F81021D3F84411D3F82401002AF5D032
:1013C000344400284FF0000305EB840518BF0320C8
:1013D000994218BF0F20AB61C1E796B103684FF483
:1013E0000472C3F804231120B9E7344405EB8405E3
:1013F0000F20AA61B3E7344405EB84050320A961FB
:10140000ADE71120ABE700BF200100200378022BDD
:1014100002D0012B00D070474068FEF79BBF00BF91
:1014200030B501208BB01A4DFEF766FF194B0093C3
:101430000FCD04AC0FC495E80300174D174A84E89C
:10144000030007234FF48074694604A8CDE90254D1
:101450000194FFF777F8B8B9114800F075F96846BC
:10146000FFF7ECF80028FAD19DF80000FFF714F917
:101470000028F9D19DF8003003F0DF03512BEED1A5
:10148000084800F061F9FEE7FEF764FFE4E700BFFB
:101490006027000044010020440200200D140000D9
:1014A000382700005427000010B4754B1B68082B28
:1014B0001CD0744AD2F8883043F47003C2F88830E4
:1014C000BFF34F8FBFF36F8F4FF01023D3F800227D
:1014D000002AC0F2A380D3F80432002BC0F29E8011
:1014E000694B6A4A1A605DF8044B70474FF08041BF
:1014F0004FF080520020C1F80C01654BC1F810017B
:10150000C1F83805D2F80414C3F82015D2F808142D
:10151000C3F82415D2F80C14C3F82815D2F8101407
:10152000C3F82C15D2F81414C3F83015D2F81814D7
:10153000C3F83415D2F81C14C3F84015D2F820149F
:10154000C3F84415D2F82414C3F84815D2F8281467
:10155000C3F84C15D2F82C14C3F85015D2F8301437
:10156000C3F85415D2F83414C3F86015D2F83814FF
:10157000C3F86415D2F83C04C3F868054549D2F8AD
:101580004004C3F86C050968D2F84424C3F87025F8
:10159000032937D8404B5B5C13B1404B404A1A607B
:1015A000404B5B5C63B1364B3F491B68394AFB20BB
:1015B000C1F81805082B11687FF47BAF032921D8E7
:1015C0003A4B5B5C93B13A483A4B2D4C02681B682E
:1015D0002468304922F00F0203F00F031343082C54
:1015E000096803607FF465AF03290BD8324B5B5C5D
:1015F00043B1234B314A1B684FF40071082B116033
:101600007FF457AF4FF08043D3F80024D2077FF523
:1016100050AF6FF00102C3F800244AE7284A0123C3
:10162000C2F80435D2F80034002BFBD04FF0102361
:101630001221234AC3F80012D2F80034002BFBD049
:101640004FF0102312211E4AC3F80412D2F80034BE
:10165000002BFBD000231A49C2F80435D1F800341E
:10166000002BFBD0BFF34F8F0649164BCA6802F41C
:10167000E0621343CB60BFF34F8F00BFFDE700BFB5
:101680003001001000ED00E0140000200090D003B5
:1016900000C0004034010010782700008C56004044
:1016A000488103007827000000F000407827000000
:1016B000E40E0040580200107827000040960240D7
:1016C00000E001400400FA0508B5074B044613B1D9
:1016D0000021AFF30080054B1868836A03B1984777
:1016E000204601F00BF800BF000000007C2700003E
:1016F00070B50D4D0D4C641BA4100026A64209D1F7
:101700000B4D0C4C00F0FCFF641BA4100026A642FD
:1017100005D170BD55F8043B98470136EEE755F802
:10172000043B98470136F2E77C0000207C00002053
:101730007C0000208000002002440346934200D138
:10174000704703F8011BF9E70FB40A4B13B51C6887
:1017500024B1A36913B9204600F066F805AB049ADA
:10176000A1680193204600F083F902B0BDE8104063
:1017700004B0704718000020002310B50446C0E9EB
:101780000033C0E90433836081814366C281836191
:10179000194608225C30FFF7CFFF054B6362054B0B
:1017A000A362054BE362054B2462236310BD00BFB7
:1017B000192000003B20000073200000972000004B
:1017C000014900F0AFB800BF7123000070B54A1E98
:1017D000682555430E4605F1740100F0C5F804462E
:1017E00040B10021C0E900160C30A06005F168028C
:1017F000FFF7A2FF204670BD014800F0B3B800BF5C
:101800005A030020014800F0AEB800BF5A03002080
:10181000014800F0A7B800BF55030020014800F0C0
:10182000A2B800BF5503002010B50446FFF7F0FF33
:10183000A3691BB1BDE81040FFF7F0BFC4E9123344
:101840002365134B134A1B68A262A34204BF012302
:10185000A361204600F020F86060204600F01CF8EC
:10186000A060204600F018F80022E06004216068C3
:10187000FFF782FFA06801220921FFF77DFFE068E2
:1018800002221221FFF778FF0123A361D2E700BFF4
:101890007C270000C1170000F8B50746FFF7ACFF32
:1018A0001E4B1E68B36913B93046FFF7BDFF4836BB
:1018B000D6E90134013B03D533680BB33668F7E74B
:1018C000B4F90C50D5B9164BE36004F158006566C5
:1018D00000F047F8FFF796FFC4E90155C4E9045545
:1018E0002560A5610822294604F15C00FFF724FF6A
:1018F000C4E90D55C4E912552046F8BD6834D9E74E
:1019000004213846FFF762FF044630600028D5D135
:10191000FFF778FF0C233B60EEE700BF7C27000059
:101920000100FFFF2DE9F8430646884600F1480410
:101930000027D4E90195B9F1010905D52468002CE7
:10194000F7D13846BDE8F883AB89012B07D9B5F943
:101950000E30013303D029463046C047074368356F
:10196000E9E7704770477047F8B5CD1C25F00305CF
:1019700008350C2D38BF0C25002D064601DBA94289
:1019800003D90C2333600020F8BD00F0F9FD214994
:101990000A6814469CB9204F3B6823B9214630465B
:1019A00000F02AFB38602946304600F025FB431C36
:1019B00023D10C233360304600F0E8FDE3E72368D1
:1019C0005B1B17D40B2B03D923601C44256004E058
:1019D0006368A2420CBF0B605360304600F0D6FD36
:1019E00004F10B00231D20F00700C21ACCD01B1AF3
:1019F000A350C9E722466468CCE7C41C24F0030462
:101A0000A042E3D0211A304600F0F6FA0130DDD1D1
:101A1000CFE700BF44030020480300209368013B48
:101A2000002B10B4936008DA9469A34201DB0A2901
:101A300003D15DF8044B00F033BB1368581C1060F1
:101A4000197008465DF8044B7047F8B506460F4616
:101A50001446D518AC4201D1002007E014F8011B50
:101A60003A463046FFF7DAFF431CF3D1F8BD0000D9
:101A70002DE9F04F0D469DB014469846064618B124
:101A800083690BB9FFF7D0FE894B9D421BD1756866
:101A90006B6ED90705D4AB899A0502D4A86DFFF700
:101AA00061FFAB891B0701D52B69EBB9294630468D
:101AB00000F05AFBC0B16B6EDC070ED54FF0FF3063
:101AC0001DB0BDE8F08F7B4B9D4201D1B568DFE7CB
:101AD000794B9D4208BFF568DAE7AB899805EDD4EC
:101AE000A86DFFF740FFE9E70023099320238DF855
:101AF0002930CDF80C803023DFF8C0818DF82A30F2
:101B00004FF0010923469A4613F8012B0AB1252A02
:101B1000F9D1BAEB040B0BD05B462246294630467E
:101B2000FFF793FF013000F0AA80099A5A44099206
:101B30009AF80030002B00F0A28000234FF0FF3213
:101B4000CDE905230AF1010A049307938DF8533078
:101B50001A935446052214F8011B584800F0C0FCA3
:101B6000049AD8B9D10644BF20238DF85330130707
:101B700044BF2B238DF853309AF800302A2B15D010
:101B8000079A544600204FF00A0C214611F8013BF9
:101B9000303B092B4ED9B0B1079214E0A0EB0803FB
:101BA00009FA03F313430493A246D2E7039B191DDA
:101BB0001B680391002BBBBF5B4242F002020793FC
:101BC0000793B8BF049223782E2B0CD163782A2B6D
:101BD00035D1039B1A1D1B680392002BB8BF4FF031
:101BE000FF3302340593DFF8E4A021780322504646
:101BF00000F076FC40B14023A0EB0A0003FA00F0AD
:101C0000049B03430134049314F8011B2C488DF802
:101C10002810062200F064FC00283FD0294B1BBB93
:101C2000039B073323F0070308330393099B3B44CB
:101C3000099367E70CFB02320C460120A5E700235D
:101C40000134059319464FF00A0C204610F8012B79
:101C5000303A092A03D9002BC5D00591C3E70CFB04
:101C6000012104460123F0E703AB00932A46164BFB
:101C700004A93046AFF300800746781CD6D16B6EBE
:101C8000D90705D4AB899A0502D4A86DFFF76BFE7E
:101C9000AB895B063FF512AF099811E703AB0093E0
:101CA0002A46094B04A9304600F080F8E4E700BF5B
:101CB000A0270000C027000080270000E0270000C8
:101CC000EA270000000000004B1A0000E627000091
:101CD0002DE9F047164699468A680B69DDF82080A1
:101CE0009342B8BF1346336091F8432007460C4631
:101CF0000AB1013333602368990642BF3368023367
:101D00003360256815F0060506D104F1190AE36869
:101D100032689B1AAB4226DC94F84320131E2268DB
:101D200018BF012392062BD404F1430249463846DA
:101D3000C04701301ED02368E568326803F006030F
:101D4000042B08BFAD1AA36822690CBF25EAE5750C
:101D500000259342C4BF9B1AED1800261A34B542E1
:101D60001AD1002008E00123524649463846C047B0
:101D7000013003D14FF0FF30BDE8F0870135C6E7F1
:101D8000E1185A1C302081F84300224494F8451091
:101D900082F843100233C7E70123224649463846FA
:101DA000C0470130E6D00136D9E700002DE9FF47F2
:101DB0000C469146277E0C99782F80469A4604F16E
:101DC000430207D8622F0AD8002F00F0D880582F7E
:101DD00000F0A38004F1420684F842703AE0A7F1D3
:101DE0006303152BF6D801A050F823F0451E000020
:101DF000591E0000D51D0000D51D0000D51D000096
:101E0000D51D0000591E0000D51D0000D51D000085
:101E1000D51D0000D51D0000651F0000891E0000B3
:101E2000471F0000D51D0000D51D0000871F0000C2
:101E3000D51D0000891E0000D51D0000D51D000025
:101E40004F1F00000B681A1D1B680A6004F1420650
:101E500084F842300123A3E0256808682E0600F1CB
:101E600004030AD505680B60002D03DA2D236D42AB
:101E700084F843305E480A2319E015F0400F0568E6
:101E80000B6018BF2DB2EFE70B682568181D0860BE
:101E9000280601D51D6802E06906FBD51D88544857
:101EA0006F2F0CBF08230A23002184F843106668B3
:101EB000A660002EA2BF216821F0040121600DB9A7
:101EC000002E4DD01646B5FBF3F103FB1157C75D4D
:101ED00006F8017D2F46BB420D46F4D9082B0BD1E5
:101EE0002368DF0708D5236961689942DEBF302384
:101EF00006F8013C06F1FF36921B2261CDF800A0E6
:101F00004B4603AA21464046FFF7E2FE01304CD182
:101F10004FF0FF3004B0BDE8F087354884F84570D5
:101F200023680E681F0656F8045B0E6014D5D907A7
:101F300044BF43F0200323601DB9236823F020032E
:101F400023601023B0E7236843F020032360782345
:101F5000284884F84530E3E75E0648BFADB2E6E7BF
:101F60001646BBE70B68266860691D1D0D603506C7
:101F70001B6801D5186002E07106FBD518800023AC
:101F800023611646BAE70B681A1D0A601E6862686C
:101F90000021304600F0A4FA08B1801B606063683D
:101FA0002361002384F84330A8E723693246494679
:101FB0004046D0470130ABD023689B0713D4E0687C
:101FC000039B9842B8BF1846A4E70123324649460E
:101FD0004046D04701309BD00135E36803995B1A36
:101FE000AB42F2DCEBE7002504F11906F5E700BF90
:101FF000F12700000228000038B5064D00230446F2
:1020000008462B6000F06CFB431C02D12B6803B127
:10201000236038BD5C03002010B50C46B1F90E10EA
:1020200000F00AFB0028ABBF636DA3891B1823F4E3
:102030008053ACBF6365A38110BD2DE9F0411F46FD
:102040008B89DB0505460C46164605D5B1F90E1001
:102050000223002200F0C8F9A389B4F90E1023F47A
:102060008053A38132463B462846BDE8F04100F04C
:1020700069B810B50C46B1F90E1000F0B5F9431C63
:10208000A38915BF606523F4805343F48053A38173
:1020900018BFA38110BDB1F90E1000F0D3B8000035
:1020A000F8B50E461446054618B183690BB9FFF71B
:1020B000BBFB214B9C422BD16C68A369A360A38915
:1020C0001A072FD523696BB323692068C01A636987
:1020D000F6B28342374604DC2146284600F048F930
:1020E00030BBA368013BA36023685A1C22601E70AA
:1020F00063690130834204D0A389DB0706D50A2E29
:1021000004D12146284600F033F988B93846F8BD95
:102110000A4B9C4201D1AC68CFE7094B9C4208BFF7
:10212000EC68CAE72146284600F01EF80028CBD00C
:102130004FF0FF37EAE700BFA0270000C0270000EC
:102140008027000038B5074D044608461146002296
:102150002A601A46FEF7ECFA431C02D12B6803B141
:10216000236038BD5C030020324B70B51D68064605
:102170000C4625B1AB6913B92846FFF755FB2E4B2A
:102180009C420FD16C68A389B4F90C2019072CD498
:10219000DD0611D40923336042F04003A3814FF0E0
:1021A000FF303EE0254B9C4201D1AC68EBE7244B6D
:1021B0009C4208BFEC68E6E7580712D5616B41B155
:1021C00004F14403994202D0304600F0E5F90023BF
:1021D0006363A38923F02403A3810023636023693D
:1021E0002360A38943F00803A38123694BB9A38922
:1021F00003F42073B3F5007F03D02146304600F08E
:1022000029F9A089B4F90C2010F001030AD00023A9
:10221000A36063695B42A361236943B910F0800046
:10222000BAD170BD810758BF6369A360F4E700208D
:10223000F7E700BF18000020A0270000C02700001B
:102240008027000038B5064D0023044608462B6061
:1022500000F026FA431C02D12B6803B1236038BD7D
:102260005C0300208A892DE9F041054610070C46E1
:1022700058D44B68002B05DC0B6C002B02DC0020D3
:10228000BDE8F081E66A002EF9D0002312F48052F6
:102290002F682B6032D0606DA3895A0705D563681B
:1022A000C01A636B0BB1236CC01A00230246E66AA6
:1022B000216A2846B047431CA38906D129681D29F5
:1022C0002CD82A4ACA40D60728D500226260D904F1
:1022D0002269226004D5421C01D12B6803B96065D4
:1022E000616B2F600029CAD004F14403994202D0E7
:1022F000284600F051F900206063C1E7216A0123FC
:102300002846B047411CC7D12B68002BC4D01D2BD9
:1023100001D0162B01D12F60B1E7A38943F0400310
:10232000A381ADE70F69002FA9D093070E6808BFFE
:102330004B690F6018BF0023A6EB07088B60B8F14C
:10234000000F9CDD216AA66A43463A462846B047FC
:10235000002806DCA38943F04003A3814FF0FF303F
:102360008EE70744A8EB0008E9E700BF0100402022
:1023700038B50B6905460C4613B90025284638BD0B
:1023800018B183690BB9FFF74FFA144B9C421BD16C
:102390006C68B4F90C30002BEFD0626ED00704D417
:1023A000990502D4A06DFFF7DDFA28462146FFF714
:1023B00059FF636EDA070546E0D4A3899B05DDD497
:1023C000A06DFFF7D0FAD9E7054B9C4201D1AC686C
:1023D000DFE7044B9C4208BFEC68DAE7A027000067
:1023E000C02700008027000038B5074D0446084686
:1023F000114600222A601A4600F06AF9431C02D1F5
:102400002B6803B1236038BD5C03002070B50E4615
:10241000B1F90E10002996B014461D4607DA0023C4
:102420002B60B3891A0610D44FF480630EE06A461D
:1024300000F014F90028F2DB019A02F47042A2F5D0
:1024400000535A425A412A60EEE74023002023609D
:1024500016B070BD8B8973B59D0706460C4607D52F
:1024600004F14703236023610123636102B070BD5F
:1024700001AB6A46FFF7CAFF009905463046FFF7F1
:1024800073FA48B9B4F90C309A05EFD423F003037A
:1024900043F00203A381E3E70D4BB362A3892060FD
:1024A00043F08003A381009B6361019B20615BB1CA
:1024B000B4F90E10304600F0E3F828B1A38923F0F8
:1024C000030343F00103A381A0890543A581CDE760
:1024D000C117000000000000000000000000000024
:1024E00001F0FF01102A2BDB10F0070F08D010F8C5
:1024F000013B013A8B422DD010F0070F42B3F6D1C9
:10250000F0B441EA012141EA014122F007047FF0E1
:1025100000070023F0E80256083C85EA010586EA38
:10252000010685FA47F5A3FA87F586FA47F6A5FA74
:1025300087F68EB9EED1F0BC01F0FF0102F0070280
:1025400032B110F8013B013A83EA010313B1F8D12B
:102550000020704701387047002D06BF354603380C
:10256000073815F0010F07D1013015F4807F02BF45
:10257000013015F4C03F0130F0BC0138704700BF96
:102580000148FFF7EFB900BF560300200148FFF7ED
:10259000EAB900BF5603002037B5002948D051F8EA
:1025A000043C0190002BA1F10404B8BFE418FFF72C
:1025B000E7FF204A01981368154633B96360146039
:1025C00003B0BDE83040FFF7E1BFA3420BD921685B
:1025D0006218934204BF1A685B68636004BF5218B4
:1025E00022602C60ECE71A465B680BB1A342FAD973
:1025F00011685518A5420BD1246821445418A342F0
:102600001160DDD11C685B68536021441160D7E71D
:1026100002D90C230360D3E7256861198B4204BFFC
:1026200019685B68636004BF491921605460C7E79B
:1026300003B030BD4403002038B5074D04460846BA
:10264000114600222A601A46FEF780F8431C02D188
:102650002B6803B1236038BD5C03002038B5074DFB
:1026600000230446084611462B6000F021F8431C65
:1026700002D12B6803B1236038BD00BF5C0300208A
:1026800038B5064D0023044608462B6000F018F8C4
:10269000431C02D12B6803B1236038BD5C030020CA
:1026A000024B58221A604FF0FF3070475C03002045
:1026B000024B58221A604FF0FF3070475C03002035
:1026C000024B58221A600020704700BF5C030020B4
:1026D000024B58221A604FF0FF3070475C03002015
:1026E000044A05491368002B08BF0B4618441060C4
:1026F000184670474C03002060030020FEE700BF2F
:10270000F8B500BFF8BC08BC9E467047F8B500BFDE
:10271000F8BC08BC9E467047FFFFFFFFFFFFFFFFAE
:10272000FFFFFFFFFFFFFFFF0000000000000000B1
:102730000000D601060100000D0A554152542065E3
:1027400078616D706C6520737461727465642E0DB0
:102750000A000000200D0A45786974210D0A000066
:10276000080000000600000005000000070000004F
:102770000000000000E0D701010000001C00002064
:102780000000000000000000000000000000000049
:102790000000000000000000000000000000000039
:1027A0000000000000000000000000000000000029
:1027B0000000000000000000000000000000000019
:1027C0000000000000000000000000000000000009
:1027D00000000000000000000000000000000000F9
:1027E000232D302B2000686C4C00656667454647FA
:1027F000003031323334353637383941424344457D
:1028000046003031323334353637383961626364EB
:082810006566000000000000F5
:0828180028DAFF7F0100000037
:1028200000000000002000400000000000200040E8
:10283000000000000090D0031C00002000000000F9
:10284000A0270000C0270000802700000000000033
:102850000000000000000000000000000000000078
:102860000000000000000000000000000000000068
:102870000000000000000000000000000000000058
:102880000000000000000000000000000000000048
:102890000000000000000000000000002502000011
:0428A0000102000031
:04000003000002BD3A
:00000001FF
